{
  "_format": "hh-sol-artifact-1",
  "contractName": "Escrow",
  "sourceName": "contracts/Escrow.sol",
  "abi": [
    {
      "inputs": [
        {
          "internalType": "uint256",
          "name": "_value",
          "type": "uint256"
        }
      ],
      "stateMutability": "nonpayable",
      "type": "constructor"
    },
    {
      "anonymous": false,
      "inputs": [
        {
          "indexed": false,
          "internalType": "address",
          "name": "from",
          "type": "address"
        },
        {
          "indexed": false,
          "internalType": "uint256",
          "name": "value",
          "type": "uint256"
        }
      ],
      "name": "Buy",
      "type": "event"
    },
    {
      "anonymous": false,
      "inputs": [],
      "name": "Finish",
      "type": "event"
    },
    {
      "anonymous": false,
      "inputs": [],
      "name": "Sent",
      "type": "event"
    },
    {
      "inputs": [],
      "name": "addBalance",
      "outputs": [],
      "stateMutability": "payable",
      "type": "function"
    },
    {
      "inputs": [],
      "name": "balance",
      "outputs": [
        {
          "internalType": "uint256",
          "name": "",
          "type": "uint256"
        }
      ],
      "stateMutability": "view",
      "type": "function"
    },
    {
      "inputs": [],
      "name": "buy",
      "outputs": [],
      "stateMutability": "payable",
      "type": "function"
    },
    {
      "inputs": [],
      "name": "buyDate",
      "outputs": [
        {
          "internalType": "uint256",
          "name": "",
          "type": "uint256"
        }
      ],
      "stateMutability": "view",
      "type": "function"
    },
    {
      "inputs": [],
      "name": "buyer",
      "outputs": [
        {
          "internalType": "address payable",
          "name": "",
          "type": "address"
        }
      ],
      "stateMutability": "view",
      "type": "function"
    },
    {
      "inputs": [],
      "name": "buyerOk",
      "outputs": [
        {
          "internalType": "bool",
          "name": "",
          "type": "bool"
        }
      ],
      "stateMutability": "view",
      "type": "function"
    },
    {
      "inputs": [
        {
          "internalType": "uint256",
          "name": "_value",
          "type": "uint256"
        }
      ],
      "name": "changeValue",
      "outputs": [],
      "stateMutability": "nonpayable",
      "type": "function"
    },
    {
      "inputs": [],
      "name": "confirmProduct",
      "outputs": [],
      "stateMutability": "nonpayable",
      "type": "function"
    },
    {
      "inputs": [],
      "name": "getValue",
      "outputs": [
        {
          "internalType": "uint256",
          "name": "",
          "type": "uint256"
        }
      ],
      "stateMutability": "view",
      "type": "function"
    },
    {
      "inputs": [],
      "name": "refund",
      "outputs": [],
      "stateMutability": "nonpayable",
      "type": "function"
    },
    {
      "inputs": [],
      "name": "report",
      "outputs": [],
      "stateMutability": "nonpayable",
      "type": "function"
    },
    {
      "inputs": [],
      "name": "seller",
      "outputs": [
        {
          "internalType": "address payable",
          "name": "",
          "type": "address"
        }
      ],
      "stateMutability": "view",
      "type": "function"
    },
    {
      "inputs": [],
      "name": "sellerOk",
      "outputs": [
        {
          "internalType": "bool",
          "name": "",
          "type": "bool"
        }
      ],
      "stateMutability": "view",
      "type": "function"
    },
    {
      "inputs": [
        {
          "internalType": "string",
          "name": "_trackNumber",
          "type": "string"
        }
      ],
      "name": "sendProduct",
      "outputs": [],
      "stateMutability": "nonpayable",
      "type": "function"
    },
    {
      "inputs": [],
      "name": "startDate",
      "outputs": [
        {
          "internalType": "uint256",
          "name": "",
          "type": "uint256"
        }
      ],
      "stateMutability": "view",
      "type": "function"
    },
    {
      "inputs": [],
      "name": "trackNumber",
      "outputs": [
        {
          "internalType": "string",
          "name": "",
          "type": "string"
        }
      ],
      "stateMutability": "view",
      "type": "function"
    }
  ],
  "bytecode": "0x60806040523480156200001157600080fd5b5060405162001f1f38038062001f1f8339818101604052810190620000379190620000ea565b33600160006101000a81548173ffffffffffffffffffffffffffffffffffffffff021916908373ffffffffffffffffffffffffffffffffffffffff1602179055508060058190555042600381905550600060068190555060006004819055506000600760006101000a81548160ff0219169083151502179055506000600760016101000a81548160ff021916908315150217905550506200013a565b600081519050620000e48162000120565b92915050565b600060208284031215620000fd57600080fd5b60006200010d84828501620000d3565b91505092915050565b6000819050919050565b6200012b8162000116565b81146200013757600080fd5b50565b611dd5806200014a6000396000f3fe6080604052600436106100f35760003560e01c80637150d8ae1161008a578063b69ef8a811610059578063b69ef8a81461027e578063c5b0e6fb146102a9578063e1376afd146102d4578063f965e32e146102fd576100f3565b80637150d8ae14610214578063a6f2ae3a1461023f578063a91958de14610249578063b163cc3814610274576100f3565b8063522253cc116100c6578063522253cc1461019057806353496a75146101a7578063590e1ae3146101d257806366c2bb8a146101e9576100f3565b806308551a53146100f85780630b97bc8614610123578063209652551461014e5780632606a10b14610179575b600080fd5b34801561010457600080fd5b5061010d610326565b60405161011a91906116f7565b60405180910390f35b34801561012f57600080fd5b5061013861034c565b60405161014591906118f8565b60405180910390f35b34801561015a57600080fd5b50610163610352565b60405161017091906118f8565b60405180910390f35b34801561018557600080fd5b5061018e61035c565b005b34801561019c57600080fd5b506101a5610555565b005b3480156101b357600080fd5b506101bc61065e565b6040516101c9919061173b565b60405180910390f35b3480156101de57600080fd5b506101e7610671565b005b3480156101f557600080fd5b506101fe61083e565b60405161020b9190611756565b60405180910390f35b34801561022057600080fd5b506102296108cc565b60405161023691906116f7565b60405180910390f35b6102476108f0565b005b34801561025557600080fd5b5061025e610bff565b60405161026b91906118f8565b60405180910390f35b61027c610c05565b005b34801561028a57600080fd5b50610293610def565b6040516102a091906118f8565b60405180910390f35b3480156102b557600080fd5b506102be610df5565b6040516102cb919061173b565b60405180910390f35b3480156102e057600080fd5b506102fb60048036038101906102f69190611474565b610e08565b005b34801561030957600080fd5b50610324600480360381019061031f91906114b5565b610fec565b005b600160009054906101000a900473ffffffffffffffffffffffffffffffffffffffff1681565b60035481565b6000600554905090565b60008054906101000a900473ffffffffffffffffffffffffffffffffffffffff1673ffffffffffffffffffffffffffffffffffffffff163373ffffffffffffffffffffffffffffffffffffffff16146103ea576040517f08c379a00000000000000000000000000000000000000000000000000000000081526004016103e1906118b8565b60405180910390fd5b60001515600760019054906101000a900460ff16151514610440576040517f08c379a000000000000000000000000000000000000000000000000000000000815260040161043790611838565b60405180910390fd5b620697806004546104519190611985565b4211610492576040517f08c379a000000000000000000000000000000000000000000000000000000000815260040161048990611798565b60405180910390fd5b60008054906101000a900473ffffffffffffffffffffffffffffffffffffffff1673ffffffffffffffffffffffffffffffffffffffff166108fc6006549081150290604051600060405180830381858888f193505050501561055357600060068190555060008060006101000a81548173ffffffffffffffffffffffffffffffffffffffff021916908373ffffffffffffffffffffffffffffffffffffffff1602179055506000600760016101000a81548160ff0219169083151502179055505b565b60008054906101000a900473ffffffffffffffffffffffffffffffffffffffff1673ffffffffffffffffffffffffffffffffffffffff163373ffffffffffffffffffffffffffffffffffffffff16146105e3576040517f08c379a00000000000000000000000000000000000000000000000000000000081526004016105da906118b8565b60405180910390fd5b60011515600760019054906101000a900460ff16151514610639576040517f08c379a000000000000000000000000000000000000000000000000000000000815260040161063090611898565b60405180910390fd5b6001600760006101000a81548160ff02191690831515021790555061065c6111c1565b565b600760009054906101000a900460ff1681565b600160009054906101000a900473ffffffffffffffffffffffffffffffffffffffff1673ffffffffffffffffffffffffffffffffffffffff163373ffffffffffffffffffffffffffffffffffffffff1614610701576040517f08c379a00000000000000000000000000000000000000000000000000000000081526004016106f890611818565b60405180910390fd5b600060065411610746576040517f08c379a000000000000000000000000000000000000000000000000000000000815260040161073d90611778565b60405180910390fd5b60008060009054906101000a900473ffffffffffffffffffffffffffffffffffffffff1673ffffffffffffffffffffffffffffffffffffffff166108fc6006549081150290604051600060405180830381858888f193505050509050801561083b57600060068190555060008060006101000a81548173ffffffffffffffffffffffffffffffffffffffff021916908373ffffffffffffffffffffffffffffffffffffffff16021790555060006004819055506000600760016101000a81548160ff0219169083151502179055506040518060200160405280600081525060029080519060200190610839929190611354565b505b50565b6002805461084b90611a9b565b80601f016020809104026020016040519081016040528092919081815260200182805461087790611a9b565b80156108c45780601f10610899576101008083540402835291602001916108c4565b820191906000526020600020905b8154815290600101906020018083116108a757829003601f168201915b505050505081565b60008054906101000a900473ffffffffffffffffffffffffffffffffffffffff1681565b60001515600760019054906101000a900460ff16151514610946576040517f08c379a000000000000000000000000000000000000000000000000000000000815260040161093d90611838565b60405180910390fd5b60001515600760009054906101000a900460ff1615151461099c576040517f08c379a0000000000000000000000000000000000000000000000000000000008152600401610993906117b8565b60405180910390fd5b600034116109df576040517f08c379a00000000000000000000000000000000000000000000000000000000081526004016109d6906117d8565b60405180910390fd5b600554341015610a24576040517f08c379a0000000000000000000000000000000000000000000000000000000008152600401610a1b90611878565b60405180910390fd5b600073ffffffffffffffffffffffffffffffffffffffff1660008054906101000a900473ffffffffffffffffffffffffffffffffffffffff1673ffffffffffffffffffffffffffffffffffffffff1614610ab3576040517f08c379a0000000000000000000000000000000000000000000000000000000008152600401610aaa90611858565b60405180910390fd5b600160009054906101000a900473ffffffffffffffffffffffffffffffffffffffff1673ffffffffffffffffffffffffffffffffffffffff163373ffffffffffffffffffffffffffffffffffffffff161415610b44576040517f08c379a0000000000000000000000000000000000000000000000000000000008152600401610b3b906117f8565b60405180910390fd5b336000806101000a81548173ffffffffffffffffffffffffffffffffffffffff021916908373ffffffffffffffffffffffffffffffffffffffff1602179055503460066000828254610b969190611985565b92505081905550426004819055507fe3d4187f6ca4248660cc0ac8b8056515bac4a8132be2eca31d6d0cc170722a7e60008054906101000a900473ffffffffffffffffffffffffffffffffffffffff1634604051610bf5929190611712565b60405180910390a1565b60045481565b60001515600760019054906101000a900460ff16151514610c5b576040517f08c379a0000000000000000000000000000000000000000000000000000000008152600401610c5290611838565b60405180910390fd5b60001515600760009054906101000a900460ff16151514610cb1576040517f08c379a0000000000000000000000000000000000000000000000000000000008152600401610ca8906117b8565b60405180910390fd5b60008054906101000a900473ffffffffffffffffffffffffffffffffffffffff1673ffffffffffffffffffffffffffffffffffffffff163373ffffffffffffffffffffffffffffffffffffffff1614610d3f576040517f08c379a0000000000000000000000000000000000000000000000000000000008152600401610d36906118b8565b60405180910390fd5b60003411610d82576040517f08c379a0000000000000000000000000000000000000000000000000000000008152600401610d79906117d8565b60405180910390fd5b60055460065434610d939190611985565b1015610dd4576040517f08c379a0000000000000000000000000000000000000000000000000000000008152600401610dcb90611878565b60405180910390fd5b3460066000828254610de69190611985565b92505081905550565b60065481565b600760019054906101000a900460ff1681565b60001515600760019054906101000a900460ff16151514610e5e576040517f08c379a0000000000000000000000000000000000000000000000000000000008152600401610e5590611838565b60405180910390fd5b60001515600760009054906101000a900460ff16151514610eb4576040517f08c379a0000000000000000000000000000000000000000000000000000000008152600401610eab906117b8565b60405180910390fd5b600160009054906101000a900473ffffffffffffffffffffffffffffffffffffffff1673ffffffffffffffffffffffffffffffffffffffff163373ffffffffffffffffffffffffffffffffffffffff1614610f44576040517f08c379a0000000000000000000000000000000000000000000000000000000008152600401610f3b90611818565b60405180910390fd5b6005546006541015610f8b576040517f08c379a0000000000000000000000000000000000000000000000000000000008152600401610f8290611878565b60405180910390fd5b6001600760016101000a81548160ff0219169083151502179055508060029080519060200190610fbc929190611354565b507f407310595001f40cc5d78b385eeeb8b69fa22f4c4df5df2d85d0469a7e227c8d60405160405180910390a150565b60001515600760019054906101000a900460ff16151514611042576040517f08c379a000000000000000000000000000000000000000000000000000000000815260040161103990611838565b60405180910390fd5b60001515600760009054906101000a900460ff16151514611098576040517f08c379a000000000000000000000000000000000000000000000000000000000815260040161108f906117b8565b60405180910390fd5b600160009054906101000a900473ffffffffffffffffffffffffffffffffffffffff1673ffffffffffffffffffffffffffffffffffffffff163373ffffffffffffffffffffffffffffffffffffffff1614611128576040517f08c379a000000000000000000000000000000000000000000000000000000000815260040161111f90611818565b60405180910390fd5b600073ffffffffffffffffffffffffffffffffffffffff1660008054906101000a900473ffffffffffffffffffffffffffffffffffffffff1673ffffffffffffffffffffffffffffffffffffffff16146111b7576040517f08c379a00000000000000000000000000000000000000000000000000000000081526004016111ae90611858565b60405180910390fd5b8060058190555050565b600060065411611206576040517f08c379a00000000000000000000000000000000000000000000000000000000081526004016111fd90611778565b60405180910390fd5b60011515600760019054906101000a900460ff1615151461125c576040517f08c379a000000000000000000000000000000000000000000000000000000000815260040161125390611898565b60405180910390fd5b60011515600760009054906101000a900460ff161515146112b2576040517f08c379a00000000000000000000000000000000000000000000000000000000081526004016112a9906118d8565b60405180910390fd5b6000600160009054906101000a900473ffffffffffffffffffffffffffffffffffffffff1673ffffffffffffffffffffffffffffffffffffffff166108fc6006549081150290604051600060405180830381858888f1935050505090506001151581151514156113515760006006819055507f74a82f6926b1d3bf00b3754f94e6c2fe32c735eb771543b06f962720da957c3860405160405180910390a15b50565b82805461136090611a9b565b90600052602060002090601f01602090048101928261138257600085556113c9565b82601f1061139b57805160ff19168380011785556113c9565b828001600101855582156113c9579182015b828111156113c85782518255916020019190600101906113ad565b5b5090506113d691906113da565b5090565b5b808211156113f35760008160009055506001016113db565b5090565b600061140a61140584611938565b611913565b90508281526020810184848401111561142257600080fd5b61142d848285611a59565b509392505050565b600082601f83011261144657600080fd5b81356114568482602086016113f7565b91505092915050565b60008135905061146e81611d88565b92915050565b60006020828403121561148657600080fd5b600082013567ffffffffffffffff8111156114a057600080fd5b6114ac84828501611435565b91505092915050565b6000602082840312156114c757600080fd5b60006114d58482850161145f565b91505092915050565b6114e781611a23565b82525050565b6114f6816119db565b82525050565b611505816119ed565b82525050565b600061151682611969565b6115208185611974565b9350611530818560208601611a68565b61153981611b8b565b840191505092915050565b6000611551601883611974565b915061155c82611b9c565b602082019050919050565b6000611574602083611974565b915061157f82611bc5565b602082019050919050565b6000611597601883611974565b91506115a282611bee565b602082019050919050565b60006115ba601083611974565b91506115c582611c17565b602082019050919050565b60006115dd601a83611974565b91506115e882611c40565b602082019050919050565b6000611600601e83611974565b915061160b82611c69565b602082019050919050565b6000611623601483611974565b915061162e82611c92565b602082019050919050565b6000611646601483611974565b915061165182611cbb565b602082019050919050565b6000611669601283611974565b915061167482611ce4565b602082019050919050565b600061168c601483611974565b915061169782611d0d565b602082019050919050565b60006116af601d83611974565b91506116ba82611d36565b602082019050919050565b60006116d2601983611974565b91506116dd82611d5f565b602082019050919050565b6116f181611a19565b82525050565b600060208201905061170c60008301846114ed565b92915050565b600060408201905061172760008301856114de565b61173460208301846116e8565b9392505050565b600060208201905061175060008301846114fc565b92915050565b60006020820190508181036000830152611770818461150b565b905092915050565b6000602082019050818103600083015261179181611544565b9050919050565b600060208201905081810360008301526117b181611567565b9050919050565b600060208201905081810360008301526117d18161158a565b9050919050565b600060208201905081810360008301526117f1816115ad565b9050919050565b60006020820190508181036000830152611811816115d0565b9050919050565b60006020820190508181036000830152611831816115f3565b9050919050565b6000602082019050818103600083015261185181611616565b9050919050565b6000602082019050818103600083015261187181611639565b9050919050565b600060208201905081810360008301526118918161165c565b9050919050565b600060208201905081810360008301526118b18161167f565b9050919050565b600060208201905081810360008301526118d1816116a2565b9050919050565b600060208201905081810360008301526118f1816116c5565b9050919050565b600060208201905061190d60008301846116e8565b92915050565b600061191d61192e565b90506119298282611acd565b919050565b6000604051905090565b600067ffffffffffffffff82111561195357611952611b5c565b5b61195c82611b8b565b9050602081019050919050565b600081519050919050565b600082825260208201905092915050565b600061199082611a19565b915061199b83611a19565b9250827fffffffffffffffffffffffffffffffffffffffffffffffffffffffffffffffff038211156119d0576119cf611afe565b5b828201905092915050565b60006119e6826119f9565b9050919050565b60008115159050919050565b600073ffffffffffffffffffffffffffffffffffffffff82169050919050565b6000819050919050565b6000611a2e82611a35565b9050919050565b6000611a4082611a47565b9050919050565b6000611a52826119f9565b9050919050565b82818337600083830152505050565b60005b83811015611a86578082015181840152602081019050611a6b565b83811115611a95576000848401525b50505050565b60006002820490506001821680611ab357607f821691505b60208210811415611ac757611ac6611b2d565b5b50919050565b611ad682611b8b565b810181811067ffffffffffffffff82111715611af557611af4611b5c565b5b80604052505050565b7f4e487b7100000000000000000000000000000000000000000000000000000000600052601160045260246000fd5b7f4e487b7100000000000000000000000000000000000000000000000000000000600052602260045260246000fd5b7f4e487b7100000000000000000000000000000000000000000000000000000000600052604160045260246000fd5b6000601f19601f8301169050919050565b7f636f6e747261637420776974686f75742062616c616e63650000000000000000600082015250565b7f796f75206e65656420756e6c6573732035206461797320616674657220627579600082015250565b7f70726f6475637420616c72656164792072656365697665640000000000000000600082015250565b7f747820776974686f75742076616c756500000000000000000000000000000000600082015250565b7f62757965722063616e6e6f74206265207468652073656c6c6572000000000000600082015250565b7f4f6e6c792073656c6c65722063616e20646f207468697320616374696f6e0000600082015250565b7f70726f6475637420616c72656164792073656e74000000000000000000000000600082015250565b7f616c726561647920686176652061206275796572000000000000000000000000600082015250565b7f696e73756666696369656e742066756e64730000000000000000000000000000600082015250565b7f70726f6475637420776173206e6f742073656e74000000000000000000000000600082015250565b7f4f6e6c792062757965722063616e20646f207468697320616374696f6e000000600082015250565b7f70726f6475637420776173206e6f7420636f6e6669726d656400000000000000600082015250565b611d9181611a19565b8114611d9c57600080fd5b5056fea264697066735822122042dba642735846f4c22689d40b19bcb8022aff530707e87c2ccd53bb14d6937b64736f6c63430008040033",
  "linkReferences": {},
  "deployedLinkReferences": {}
}