{
  "_format": "hh-sol-artifact-1",
  "contractName": "Escrow",
  "sourceName": "contracts/Escrow.sol",
  "abi": [
    {
      "inputs": [
        {
          "internalType": "uint256",
          "name": "_value",
          "type": "uint256"
        }
      ],
      "stateMutability": "nonpayable",
      "type": "constructor"
    },
    {
      "anonymous": false,
      "inputs": [
        {
          "indexed": false,
          "internalType": "address",
          "name": "from",
          "type": "address"
        },
        {
          "indexed": false,
          "internalType": "uint256",
          "name": "value",
          "type": "uint256"
        }
      ],
      "name": "Buy",
      "type": "event"
    },
    {
      "anonymous": false,
      "inputs": [],
      "name": "Finish",
      "type": "event"
    },
    {
      "anonymous": false,
      "inputs": [],
      "name": "Sent",
      "type": "event"
    },
    {
      "inputs": [],
      "name": "addMoreBalance",
      "outputs": [],
      "stateMutability": "payable",
      "type": "function"
    },
    {
      "inputs": [],
      "name": "balance",
      "outputs": [
        {
          "internalType": "uint256",
          "name": "",
          "type": "uint256"
        }
      ],
      "stateMutability": "view",
      "type": "function"
    },
    {
      "inputs": [],
      "name": "buy",
      "outputs": [],
      "stateMutability": "payable",
      "type": "function"
    },
    {
      "inputs": [],
      "name": "buyDate",
      "outputs": [
        {
          "internalType": "uint256",
          "name": "",
          "type": "uint256"
        }
      ],
      "stateMutability": "view",
      "type": "function"
    },
    {
      "inputs": [],
      "name": "buyer",
      "outputs": [
        {
          "internalType": "address payable",
          "name": "",
          "type": "address"
        }
      ],
      "stateMutability": "view",
      "type": "function"
    },
    {
      "inputs": [],
      "name": "buyerOk",
      "outputs": [
        {
          "internalType": "bool",
          "name": "",
          "type": "bool"
        }
      ],
      "stateMutability": "view",
      "type": "function"
    },
    {
      "inputs": [
        {
          "internalType": "uint256",
          "name": "_value",
          "type": "uint256"
        }
      ],
      "name": "changeValue",
      "outputs": [],
      "stateMutability": "nonpayable",
      "type": "function"
    },
    {
      "inputs": [],
      "name": "confirmProduct",
      "outputs": [],
      "stateMutability": "nonpayable",
      "type": "function"
    },
    {
      "inputs": [],
      "name": "getValue",
      "outputs": [
        {
          "internalType": "uint256",
          "name": "",
          "type": "uint256"
        }
      ],
      "stateMutability": "view",
      "type": "function"
    },
    {
      "inputs": [],
      "name": "refund",
      "outputs": [],
      "stateMutability": "nonpayable",
      "type": "function"
    },
    {
      "inputs": [],
      "name": "report",
      "outputs": [],
      "stateMutability": "nonpayable",
      "type": "function"
    },
    {
      "inputs": [],
      "name": "seller",
      "outputs": [
        {
          "internalType": "address payable",
          "name": "",
          "type": "address"
        }
      ],
      "stateMutability": "view",
      "type": "function"
    },
    {
      "inputs": [],
      "name": "sellerOk",
      "outputs": [
        {
          "internalType": "bool",
          "name": "",
          "type": "bool"
        }
      ],
      "stateMutability": "view",
      "type": "function"
    },
    {
      "inputs": [
        {
          "internalType": "string",
          "name": "_trackNumber",
          "type": "string"
        }
      ],
      "name": "sendProduct",
      "outputs": [],
      "stateMutability": "nonpayable",
      "type": "function"
    },
    {
      "inputs": [],
      "name": "startDate",
      "outputs": [
        {
          "internalType": "uint256",
          "name": "",
          "type": "uint256"
        }
      ],
      "stateMutability": "view",
      "type": "function"
    },
    {
      "inputs": [],
      "name": "trackNumber",
      "outputs": [
        {
          "internalType": "string",
          "name": "",
          "type": "string"
        }
      ],
      "stateMutability": "view",
      "type": "function"
    }
  ],
  "bytecode": "0x60806040523480156200001157600080fd5b506040516200224b3803806200224b8339818101604052810190620000379190620000ea565b33600160006101000a81548173ffffffffffffffffffffffffffffffffffffffff021916908373ffffffffffffffffffffffffffffffffffffffff16021790555080600581905550600060068190555060006004819055506000600760006101000a81548160ff0219169083151502179055506000600760016101000a81548160ff02191690831515021790555042600381905550506200013a565b600081519050620000e48162000120565b92915050565b600060208284031215620000fd57600080fd5b60006200010d84828501620000d3565b91505092915050565b6000819050919050565b6200012b8162000116565b81146200013757600080fd5b50565b612101806200014a6000396000f3fe6080604052600436106100f35760003560e01c806366c2bb8a1161008a578063b69ef8a811610059578063b69ef8a81461027e578063c5b0e6fb146102a9578063e1376afd146102d4578063f965e32e146102fd576100f3565b806366c2bb8a146101f35780637150d8ae1461021e578063a6f2ae3a14610249578063a91958de14610253576100f3565b80632d293b9f116100c65780632d293b9f14610190578063522253cc1461019a57806353496a75146101b1578063590e1ae3146101dc576100f3565b806308551a53146100f85780630b97bc8614610123578063209652551461014e5780632606a10b14610179575b600080fd5b34801561010457600080fd5b5061010d610326565b60405161011a9190611783565b60405180910390f35b34801561012f57600080fd5b5061013861034c565b6040516101459190611a04565b60405180910390f35b34801561015a57600080fd5b50610163610352565b6040516101709190611a04565b60405180910390f35b34801561018557600080fd5b5061018e61035c565b005b610198610555565b005b3480156101a657600080fd5b506101af61073f565b005b3480156101bd57600080fd5b506101c6610848565b6040516101d391906117c7565b60405180910390f35b3480156101e857600080fd5b506101f161085b565b005b3480156101ff57600080fd5b50610208610a28565b60405161021591906117e2565b60405180910390f35b34801561022a57600080fd5b50610233610ab6565b6040516102409190611783565b60405180910390f35b610251610ada565b005b34801561025f57600080fd5b50610268610de9565b6040516102759190611a04565b60405180910390f35b34801561028a57600080fd5b50610293610def565b6040516102a09190611a04565b60405180910390f35b3480156102b557600080fd5b506102be610df5565b6040516102cb91906117c7565b60405180910390f35b3480156102e057600080fd5b506102fb60048036038101906102f69190611474565b610e08565b005b34801561030957600080fd5b50610324600480360381019061031f91906114b5565b610fec565b005b600160009054906101000a900473ffffffffffffffffffffffffffffffffffffffff1681565b60035481565b6000600554905090565b60008054906101000a900473ffffffffffffffffffffffffffffffffffffffff1673ffffffffffffffffffffffffffffffffffffffff163373ffffffffffffffffffffffffffffffffffffffff16146103ea576040517f08c379a00000000000000000000000000000000000000000000000000000000081526004016103e1906118e4565b60405180910390fd5b60001515600760019054906101000a900460ff16151514610440576040517f08c379a000000000000000000000000000000000000000000000000000000000815260040161043790611984565b60405180910390fd5b62278d006004546104519190611a91565b4211610492576040517f08c379a000000000000000000000000000000000000000000000000000000000815260040161048990611904565b60405180910390fd5b60008054906101000a900473ffffffffffffffffffffffffffffffffffffffff1673ffffffffffffffffffffffffffffffffffffffff166108fc6006549081150290604051600060405180830381858888f193505050501561055357600060068190555060008060006101000a81548173ffffffffffffffffffffffffffffffffffffffff021916908373ffffffffffffffffffffffffffffffffffffffff1602179055506000600760016101000a81548160ff0219169083151502179055505b565b60001515600760019054906101000a900460ff161515146105ab576040517f08c379a00000000000000000000000000000000000000000000000000000000081526004016105a290611844565b60405180910390fd5b60001515600760009054906101000a900460ff16151514610601576040517f08c379a00000000000000000000000000000000000000000000000000000000081526004016105f890611944565b60405180910390fd5b60008054906101000a900473ffffffffffffffffffffffffffffffffffffffff1673ffffffffffffffffffffffffffffffffffffffff163373ffffffffffffffffffffffffffffffffffffffff161461068f576040517f08c379a0000000000000000000000000000000000000000000000000000000008152600401610686906118e4565b60405180910390fd5b600034116106d2576040517f08c379a00000000000000000000000000000000000000000000000000000000081526004016106c9906118c4565b60405180910390fd5b600554600654346106e39190611a91565b1015610724576040517f08c379a000000000000000000000000000000000000000000000000000000000815260040161071b906119e4565b60405180910390fd5b34600660008282546107369190611a91565b92505081905550565b60008054906101000a900473ffffffffffffffffffffffffffffffffffffffff1673ffffffffffffffffffffffffffffffffffffffff163373ffffffffffffffffffffffffffffffffffffffff16146107cd576040517f08c379a00000000000000000000000000000000000000000000000000000000081526004016107c4906118e4565b60405180910390fd5b60011515600760019054906101000a900460ff16151514610823576040517f08c379a000000000000000000000000000000000000000000000000000000000815260040161081a906118a4565b60405180910390fd5b6001600760006101000a81548160ff0219169083151502179055506108466111c1565b565b600760009054906101000a900460ff1681565b600160009054906101000a900473ffffffffffffffffffffffffffffffffffffffff1673ffffffffffffffffffffffffffffffffffffffff163373ffffffffffffffffffffffffffffffffffffffff16146108eb576040517f08c379a00000000000000000000000000000000000000000000000000000000081526004016108e2906119a4565b60405180910390fd5b600060065411610930576040517f08c379a000000000000000000000000000000000000000000000000000000000815260040161092790611824565b60405180910390fd5b60008060009054906101000a900473ffffffffffffffffffffffffffffffffffffffff1673ffffffffffffffffffffffffffffffffffffffff166108fc6006549081150290604051600060405180830381858888f1935050505090508015610a2557600060068190555060008060006101000a81548173ffffffffffffffffffffffffffffffffffffffff021916908373ffffffffffffffffffffffffffffffffffffffff16021790555060006004819055506000600760016101000a81548160ff0219169083151502179055506040518060200160405280600081525060029080519060200190610a23929190611354565b505b50565b60028054610a3590611ba7565b80601f0160208091040260200160405190810160405280929190818152602001828054610a6190611ba7565b8015610aae5780601f10610a8357610100808354040283529160200191610aae565b820191906000526020600020905b815481529060010190602001808311610a9157829003601f168201915b505050505081565b60008054906101000a900473ffffffffffffffffffffffffffffffffffffffff1681565b60001515600760019054906101000a900460ff16151514610b30576040517f08c379a0000000000000000000000000000000000000000000000000000000008152600401610b2790611844565b60405180910390fd5b60001515600760009054906101000a900460ff16151514610b86576040517f08c379a0000000000000000000000000000000000000000000000000000000008152600401610b7d90611944565b60405180910390fd5b60003411610bc9576040517f08c379a0000000000000000000000000000000000000000000000000000000008152600401610bc0906118c4565b60405180910390fd5b600554341015610c0e576040517f08c379a0000000000000000000000000000000000000000000000000000000008152600401610c05906119c4565b60405180910390fd5b600073ffffffffffffffffffffffffffffffffffffffff1660008054906101000a900473ffffffffffffffffffffffffffffffffffffffff1673ffffffffffffffffffffffffffffffffffffffff1614610c9d576040517f08c379a0000000000000000000000000000000000000000000000000000000008152600401610c9490611884565b60405180910390fd5b3373ffffffffffffffffffffffffffffffffffffffff16600160009054906101000a900473ffffffffffffffffffffffffffffffffffffffff1673ffffffffffffffffffffffffffffffffffffffff161415610d2e576040517f08c379a0000000000000000000000000000000000000000000000000000000008152600401610d2590611864565b60405180910390fd5b336000806101000a81548173ffffffffffffffffffffffffffffffffffffffff021916908373ffffffffffffffffffffffffffffffffffffffff1602179055503460066000828254610d809190611a91565b92505081905550426004819055507fe3d4187f6ca4248660cc0ac8b8056515bac4a8132be2eca31d6d0cc170722a7e60008054906101000a900473ffffffffffffffffffffffffffffffffffffffff1634604051610ddf92919061179e565b60405180910390a1565b60045481565b60065481565b600760019054906101000a900460ff1681565b60001515600760019054906101000a900460ff16151514610e5e576040517f08c379a0000000000000000000000000000000000000000000000000000000008152600401610e5590611844565b60405180910390fd5b60001515600760009054906101000a900460ff16151514610eb4576040517f08c379a0000000000000000000000000000000000000000000000000000000008152600401610eab90611944565b60405180910390fd5b600160009054906101000a900473ffffffffffffffffffffffffffffffffffffffff1673ffffffffffffffffffffffffffffffffffffffff163373ffffffffffffffffffffffffffffffffffffffff1614610f44576040517f08c379a0000000000000000000000000000000000000000000000000000000008152600401610f3b906119a4565b60405180910390fd5b6005546006541015610f8b576040517f08c379a0000000000000000000000000000000000000000000000000000000008152600401610f8290611924565b60405180910390fd5b6001600760016101000a81548160ff0219169083151502179055508060029080519060200190610fbc929190611354565b507f407310595001f40cc5d78b385eeeb8b69fa22f4c4df5df2d85d0469a7e227c8d60405160405180910390a150565b60001515600760019054906101000a900460ff16151514611042576040517f08c379a000000000000000000000000000000000000000000000000000000000815260040161103990611844565b60405180910390fd5b60001515600760009054906101000a900460ff16151514611098576040517f08c379a000000000000000000000000000000000000000000000000000000000815260040161108f90611944565b60405180910390fd5b600160009054906101000a900473ffffffffffffffffffffffffffffffffffffffff1673ffffffffffffffffffffffffffffffffffffffff163373ffffffffffffffffffffffffffffffffffffffff1614611128576040517f08c379a000000000000000000000000000000000000000000000000000000000815260040161111f906119a4565b60405180910390fd5b600073ffffffffffffffffffffffffffffffffffffffff1660008054906101000a900473ffffffffffffffffffffffffffffffffffffffff1673ffffffffffffffffffffffffffffffffffffffff16146111b7576040517f08c379a00000000000000000000000000000000000000000000000000000000081526004016111ae90611804565b60405180910390fd5b8060058190555050565b600060065411611206576040517f08c379a00000000000000000000000000000000000000000000000000000000081526004016111fd90611824565b60405180910390fd5b60011515600760019054906101000a900460ff1615151461125c576040517f08c379a0000000000000000000000000000000000000000000000000000000008152600401611253906118a4565b60405180910390fd5b60011515600760009054906101000a900460ff161515146112b2576040517f08c379a00000000000000000000000000000000000000000000000000000000081526004016112a990611964565b60405180910390fd5b6000600160009054906101000a900473ffffffffffffffffffffffffffffffffffffffff1673ffffffffffffffffffffffffffffffffffffffff166108fc6006549081150290604051600060405180830381858888f1935050505090506001151581151514156113515760006006819055507f74a82f6926b1d3bf00b3754f94e6c2fe32c735eb771543b06f962720da957c3860405160405180910390a15b50565b82805461136090611ba7565b90600052602060002090601f01602090048101928261138257600085556113c9565b82601f1061139b57805160ff19168380011785556113c9565b828001600101855582156113c9579182015b828111156113c85782518255916020019190600101906113ad565b5b5090506113d691906113da565b5090565b5b808211156113f35760008160009055506001016113db565b5090565b600061140a61140584611a44565b611a1f565b90508281526020810184848401111561142257600080fd5b61142d848285611b65565b509392505050565b600082601f83011261144657600080fd5b81356114568482602086016113f7565b91505092915050565b60008135905061146e816120b4565b92915050565b60006020828403121561148657600080fd5b600082013567ffffffffffffffff8111156114a057600080fd5b6114ac84828501611435565b91505092915050565b6000602082840312156114c757600080fd5b60006114d58482850161145f565b91505092915050565b6114e781611b2f565b82525050565b6114f681611ae7565b82525050565b61150581611af9565b82525050565b600061151682611a75565b6115208185611a80565b9350611530818560208601611b74565b61153981611c97565b840191505092915050565b6000611551603683611a80565b915061155c82611ca8565b604082019050919050565b6000611574601983611a80565b915061157f82611cf7565b602082019050919050565b6000611597601883611a80565b91506115a282611d20565b602082019050919050565b60006115ba602d83611a80565b91506115c582611d49565b604082019050919050565b60006115dd602983611a80565b91506115e882611d98565b604082019050919050565b6000611600601f83611a80565b915061160b82611de7565b602082019050919050565b6000611623602e83611a80565b915061162e82611e10565b604082019050919050565b6000611646602883611a80565b915061165182611e5f565b604082019050919050565b6000611669603683611a80565b915061167482611eae565b604082019050919050565b600061168c602a83611a80565b915061169782611efd565b604082019050919050565b60006116af601983611a80565b91506116ba82611f4c565b602082019050919050565b60006116d2602083611a80565b91506116dd82611f75565b602082019050919050565b60006116f5601d83611a80565b915061170082611f9e565b602082019050919050565b6000611718602783611a80565b915061172382611fc7565b604082019050919050565b600061173b603b83611a80565b915061174682612016565b604082019050919050565b600061175e603883611a80565b915061176982612065565b604082019050919050565b61177d81611b25565b82525050565b600060208201905061179860008301846114ed565b92915050565b60006040820190506117b360008301856114de565b6117c06020830184611774565b9392505050565b60006020820190506117dc60008301846114fc565b92915050565b600060208201905081810360008301526117fc818461150b565b905092915050565b6000602082019050818103600083015261181d81611544565b9050919050565b6000602082019050818103600083015261183d81611567565b9050919050565b6000602082019050818103600083015261185d8161158a565b9050919050565b6000602082019050818103600083015261187d816115ad565b9050919050565b6000602082019050818103600083015261189d816115d0565b9050919050565b600060208201905081810360008301526118bd816115f3565b9050919050565b600060208201905081810360008301526118dd81611616565b9050919050565b600060208201905081810360008301526118fd81611639565b9050919050565b6000602082019050818103600083015261191d8161165c565b9050919050565b6000602082019050818103600083015261193d8161167f565b9050919050565b6000602082019050818103600083015261195d816116a2565b9050919050565b6000602082019050818103600083015261197d816116c5565b9050919050565b6000602082019050818103600083015261199d816116e8565b9050919050565b600060208201905081810360008301526119bd8161170b565b9050919050565b600060208201905081810360008301526119dd8161172e565b9050919050565b600060208201905081810360008301526119fd81611751565b9050919050565b6000602082019050611a196000830184611774565b92915050565b6000611a29611a3a565b9050611a358282611bd9565b919050565b6000604051905090565b600067ffffffffffffffff821115611a5f57611a5e611c68565b5b611a6882611c97565b9050602081019050919050565b600081519050919050565b600082825260208201905092915050565b6000611a9c82611b25565b9150611aa783611b25565b9250827fffffffffffffffffffffffffffffffffffffffffffffffffffffffffffffffff03821115611adc57611adb611c0a565b5b828201905092915050565b6000611af282611b05565b9050919050565b60008115159050919050565b600073ffffffffffffffffffffffffffffffffffffffff82169050919050565b6000819050919050565b6000611b3a82611b41565b9050919050565b6000611b4c82611b53565b9050919050565b6000611b5e82611b05565b9050919050565b82818337600083830152505050565b60005b83811015611b92578082015181840152602081019050611b77565b83811115611ba1576000848401525b50505050565b60006002820490506001821680611bbf57607f821691505b60208210811415611bd357611bd2611c39565b5b50919050565b611be282611c97565b810181811067ffffffffffffffff82111715611c0157611c00611c68565b5b80604052505050565b7f4e487b7100000000000000000000000000000000000000000000000000000000600052601160045260246000fd5b7f4e487b7100000000000000000000000000000000000000000000000000000000600052602260045260246000fd5b7f4e487b7100000000000000000000000000000000000000000000000000000000600052604160045260246000fd5b6000601f19601f8301169050919050565b7f56616c6f7220736f20706f64652073657220616c74657261646f206361736f2060008201527f6e616f2074656e686120756d20636f6d707261646f7200000000000000000000602082015250565b7f436f6e747261746f206e616f20706f737375692073616c646f00000000000000600082015250565b7f4f2070726f6475746f206a6120666f6920656e766961646f0000000000000000600082015250565b7f436f6d707261646f72206e616f20706f646520736572206f206d65736d6f207160008201527f7565206f2076656e6465646f7200000000000000000000000000000000000000602082015250565b7f4a612065786973746520756d20636f6d707261646f722070617261206573736560008201527f20636f6e747261746f0000000000000000000000000000000000000000000000602082015250565b7f4f2070726f6475746f2061696e6461206e616f20666f6920656e766961646f00600082015250565b7f4f2076616c6f72207472616e7366657269646f2070726563697361207365722060008201527f6d61696f7220717565207a65726f000000000000000000000000000000000000602082015250565b7f536f6d656e7465206f20636f6d707261646f7220706f64652066617a6572206560008201527f737361206163616f000000000000000000000000000000000000000000000000602082015250565b7f566f636520736f20706f6465207265706f7274617220756d206572726f20333060008201527f2064696173206465706f697320646120636f6d70726100000000000000000000602082015250565b7f53616c646f206465766520736572206d61696f7220717565206f2076616c6f7260008201527f20646f20657363726f7700000000000000000000000000000000000000000000602082015250565b7f4f2070726f6475746f206a6120666f6920726563656269646f00000000000000600082015250565b7f4f2070726f6475746f2061696e6461206e616f20666f6920726563656269646f600082015250565b7f436f6d707261646f72206a6120656e76696f75206f2070726f6475746f000000600082015250565b7f536f6d656e7465206f2076656e6465646f7220706f64652066617a657220657360008201527f7361206163616f00000000000000000000000000000000000000000000000000602082015250565b7f4f2076616c6f72207472616e7366657269646f2070726563697361207365722060008201527f6d61696f7220717565206f2076616c6f7220646f20657363726f770000000000602082015250565b7f4f2076616c6f7220646f2073616c646f207072656369736120736572206d616960008201527f726f20717565206f2076616c6f7220646f20657363726f770000000000000000602082015250565b6120bd81611b25565b81146120c857600080fd5b5056fea26469706673582212201424ff51791a32a13a56b571ab649dbfe07243fc9162cca6d104d8e9280aa30964736f6c63430008040033",
  "linkReferences": {},
  "deployedLinkReferences": {}
}